:100000000C94B1000C94D9000C94D9000C94F30317
:100010000C9499040C9475040C94D9000C94D90098
:100020000C94D9000C94D9000C94D9000C94D900EC
:100030000C94D9000C94D9000C94D9000C94D900DC
:100040000C9451030C94D9000C94C1030C949B03A1
:100050000C94D9000C94D9000C94D9000C94D900BC
:100060000C94D9000C94D90000C2010001001100C9
:1000700011000C0000E100000A002500250021000D
:10008000009600001900390039003600127A00008D
:100090001F004600460044008070000022004D0012
:1000A0004D004A00004B00003600750075007200DC
:1000B000403800004A009C009C0099008025000008
:1000C0007200EC00EC00E900C0120000E900DA0167
:1000D000DA01D70160090000D701B603B603B30304
:1000E000B0040000B3036E076E076B0758020000F0
:1000F0006E07DC0EDC0ED80E2C010000DC0EC11DDC
:10010000C11DBE1D00000000240027002A000000C1
:1001100000080002010000030407000000000000C6
:10012000000000000000230026002900000000005D
:10013000250028002B000404040404040404020223
:100140000202020203030303030301020408102056
:100150004080010204081020010204081020BD04A0
:10016000C10611241FBECFEFD8E0DEBFCDBF11E026
:10017000A0E0B1E0EAE5FEE002C005900D92A034F7
:10018000B107D9F722E0A0E4B1E001C01D92A63486
:10019000B207E1F710E0C0EBD0E004C02197FE0108
:1001A0000E941A07CF3AD107C9F70E9465050C943F
:1001B00020070C94000090E0FC01E25FFE4F2491C8
:1001C000FC01E65BFE4F3491FC01EA5CFE4FE491DA
:1001D000EE23C9F0222339F0233001F1A8F42130B5
:1001E00019F1223029F1F0E0EE0FFF1FE45DFE4F20
:1001F000A591B4918FB7F894EC91611126C0309518
:100200003E233C938FBF08952730A9F02830C9F0D2
:10021000243049F7809180008F7D03C08091800059
:100220008F7780938000DFCF84B58F7784BDDBCF5D
:1002300084B58F7DFBCF8091B0008F778093B00025
:10024000D2CF8091B0008F7DF9CF3E2BDACFCF9304
:10025000DF9390E0FC01E65BFE4F24918A5C9E4FA9
:10026000FC0184918823D1F090E0880F991FFC0154
:10027000EC5FFE4FA591B491FC01E45DFE4FC5918A
:10028000D49161110EC09FB7F8948C91E22FE09544
:100290008E238C932881E223E8839FBFDF91CF9147
:1002A00008958FB7F894EC91E22BEC938FBFF6CFC3
:1002B000AF92BF92CF92DF92EF92FF920F931F9374
:1002C000CF93DF936C017B018B01040F151FEB01B2
:1002D0005E01AE18BF08C017D10759F06991D60169
:1002E000ED91FC910190F081E02DC6010995892BDB
:1002F00079F7C501DF91CF911F910F91FF90EF909A
:10030000DF90CF90BF90AF900895FC01538D448D46
:10031000252F30E0842F90E0821B930B541710F0B0
:10032000CF96089501970895FC01918D828D9817BD
:1003300061F0A28DAE0FBF2FB11D5D968C91928D95
:100340009F5F9F73928F90E008958FEF9FEF0895C6
:10035000FC01918D828D981731F0828DE80FF11D8F
:10036000858D90E008958FEF9FEF0895FC01918DAA
:10037000228D892F90E0805C9F4F821B91098F73A3
:10038000992708958DE891E00E94B60121E0892B1C
:1003900009F420E0822F089580E090E0892B29F075
:1003A0000E94C20181110C9400000895FC01A48DEB
:1003B000A80FB92FB11DA35ABF4F2C91848D90E087
:1003C00001968F739927848FA689B7892C93A0896A
:1003D000B1898C91837080648C93938D848D9813F4
:1003E00006C00288F389E02D80818F7D8083089587
:1003F000EF92FF920F931F93CF93DF93EC0181E075
:10040000888F9B8D8C8D98131AC0E889F98980811B
:1004100085FF15C09FB7F894EE89FF896083E8894E
:10042000F98980818370806480839FBF81E090E040
:10043000DF91CF911F910F91FF90EF900895F62ECD
:100440000B8D10E00F5F1F4F0F731127E02E8C8D67
:100450008E110CC00FB607FCFACFE889F9898081AC
:1004600085FFF5CFCE010E94D601F1CFEB8DEC0FC9
:10047000FD2FF11DE35AFF4FF0829FB7F8940B8FC9
:10048000EA89FB8980818062CFCFCF93DF93EC0133
:10049000888D8823B9F0AA89BB89E889F9898C916C
:1004A00085FD03C0808186FD0DC00FB607FCF7CF28
:1004B0008C9185FFF2CF808185FFEDCFCE010E9428
:1004C000D601E9CFDF91CF910895DC015196ED91EE
:1004D000FC915297908150968C91809589238083CE
:1004E000089520918201309183012817390781F402
:1004F0009091800180918101981751F0E0918001E5
:10050000F0E0E05CFE4F8081082E000C990B08950E
:100510008FEF9FEF0895209182013091830128177A
:10052000390739F48FB7F894109281011092800145
:100530008FBF0895209182013091830128173907D8
:1005400071F4809181012091800190E0805C9F4F47
:10055000821B910960E470E00E94F206089590E029
:1005600080E0089520918201309183012817390796
:10057000B9F49091800180918101981789F0E09100
:100580008001F0E0E05CFE4F80812091800130E04E
:100590002F5F3F4F2F7333272093800190E0089502
:1005A0008FEF9FEF089520E001972FEF8F3F920785
:1005B000D9F7089590E080E00895DF92EF92FF92DE
:1005C0000F931F93CF93DF93EC01898D9A8D892B25
:1005D00071F481E090E09B838A8390E080E0DF917A
:1005E000CF911F910F91FF90EF90DF900895162FFC
:1005F000DFB6F8948B8D81FD29C0CE010E94650283
:10060000898D9A8D05960E94D3028B8D98E0E92EF4
:10061000F12C01E081FF28C0812F8023F1F0CE0171
:100620000E946502898D9A8D0E94D302000F81E09D
:10063000E81AF10889F7CE010E946502DFBE898DB4
:100640009A8D0E94D30281E090E0C9CFE989FA89AE
:1006500080819889892B8083D3CFE989FA89808129
:100660009889892B8083DECF812F8023B1F0E9899F
:10067000FA8980819889892B8083898D9A8D0E943F
:10068000D302000F81E0E81AF10871F7E989FA89CD
:1006900080819889892B8083D1CFCE010E94650209
:1006A000ECCF1F920F920FB60F9211242F933F930E
:1006B0008F939F93AF93BF938091890190918A010B
:1006C000A0918B01B0918C013091880123E0230F20
:1006D0002D3758F50196A11DB11D209388018093F7
:1006E000890190938A01A0938B01B0938C01809132
:1006F000840190918501A0918601B09187010196B6
:10070000A11DB11D8093840190938501A093860162
:10071000B0938701BF91AF919F918F913F912F919E
:100720000F900FBE0F901F90189526E8230F02968A
:10073000A11DB11DD2CF1F920F920FB60F9211249F
:100740002F933F934F935F936F937F938F939F93D9
:10075000AF93BF93EF93FF938DE891E00E94D60192
:10076000FF91EF91BF91AF919F918F917F916F9189
:100770005F914F913F912F910F900FBE0F901F905F
:1007800018951F920F920FB60F9211242F938F93EB
:100790009F93EF93FF93E0919D01F0919E018081E3
:1007A000E091A301F091A40182FD1BC09081809192
:1007B000A6018F5F8F732091A701821741F0E0910E
:1007C000A601F0E0E357FE4F958F8093A601FF91BD
:1007D000EF919F918F912F910F900FBE0F901F90CF
:1007E00018958081F4CF1F920F920FB60F921124AB
:1007F000EF92FF920F931F932F933F934F935F932B
:100800006F937F938F939F93AF93BF93CF93DF9318
:10081000EF93FF93C0918201D0918301209749F01B
:10082000EE85FF859D858B8D81FF1AC08081892390
:10083000D1F4FF91EF91DF91CF91BF91AF919F9153
:100840008F917F916F915F914F913F912F911F9168
:100850000F91FF90EF900F900FBE0F901F90189583
:100860008081892331F78B899C890E94D30288E09B
:10087000E82EF12C10E001E08D899E890E94D302C0
:10088000EE85FF8580819D85892339F1102B000F2E
:1008900081E0E81AF10881F78F89988D0E94D302D0
:1008A0008B8D81FD1095809181012091800190E0D8
:1008B00001968F7399272817190699F0E091810105
:1008C000F0E0E05CFE4F10838091810190E00196A2
:1008D0008F73992780938101ACCF802F8095182347
:1008E000D6CF8B8D81608B8FA4CF1F920F920FB6C6
:1008F0000F9211242F933F934F935F936F937F93A6
:100900008F939F93AF93BF93EF93FF930E94F30353
:10091000FF91EF91BF91AF919F918F917F916F91D7
:100920005F914F913F912F910F900FBE0F901F90AD
:1009300018951F920F920FB60F9211242F933F9389
:100940004F935F936F937F938F939F93AF93BF93D7
:10095000EF93FF930E94F303FF91EF91BF91AF914B
:100960009F918F917F916F915F914F913F912F91C7
:100970000F900FBE0F901F9018951092900110923B
:100980008F0188EE93E0A0E0B0E080939101909316
:100990009201A0939301B093940124E031E030934D
:1009A0008E0120938D0125EC30E030939A01209345
:1009B000990124EC30E030939C0120939B0120ECC2
:1009C00030E030939E0120939D0121EC30E0309384
:1009D000A00120939F0122EC30E03093A2012093EC
:1009E000A10126EC30E03093A4012093A3011092E2
:1009F000A6011092A7011092A8011092A9011092CD
:100A00002D0210922C0280932E0290932F02A0931D
:100A10003002B093310286E191E090932B028093F3
:100A20002A0210923E0210923D0210924002109251
:100A30003F02109242021092410210924402109220
:100A40004302809145028E7F8D7F8093450261E055
:100A500083E00E94270161E083E00E94DB00EDE477
:100A6000F1E0E491E0933A02E9E3F1E0E491F0E0AF
:100A7000EE0FFF1FE45DFE4F8591949190933C0231
:100A800080933B0260E082E00E9427018091450252
:100A900081FD04C061E082E00E94DB0082E080937F
:100AA0003602ECE4F1E0E491E0933702E8E3F1E0B0
:100AB000E491F0E0EE0FFF1FEE5DFE4F8591949103
:100AC00090933902809338020895789484B58260B7
:100AD00084BD84B5816084BD85B5826085BD85B5E2
:100AE000816085BD80916E00816080936E00109260
:100AF00081008091810082608093810080918100DB
:100B0000816080938100809180008160809380006B
:100B10008091B10084608093B1008091B0008160C9
:100B20008093B00080917A00846080937A008091F5
:100B30007A00826080937A0080917A00816080934D
:100B40007A0080917A00806880937A001092C100C8
:100B5000E0919D01F0919E0182E08083E0919901F6
:100B6000F0919A011082E0919B01F0919C018FEC31
:100B700080831092A501E091A101F091A20186E08D
:100B80008083E0919F01F091A0018081806180834A
:100B9000E0919F01F091A001808188608083E091C5
:100BA0009F01F091A001808180688083E0919F0186
:100BB000F091A00180818F7D808310924402109279
:100BC000430210924202109241021092400210928F
:100BD0003F0290E080E0FC01E859FF4F45915591BC
:100BE00065917491403855426105710509F0A6C0C0
:100BF000FC01E459FF4F2591349130933E0220933C
:100C00003D02FC01E259FF4F25913491309340029F
:100C100020933F02FC01E059FF4F2591349130931E
:100C2000420220934102FC01EE58FF4F85919491BE
:100C3000909344028093430280914102909142023A
:100C4000892BB1F190913602963160F520916800C0
:100C500084E0983048F031E09E3008F430E081E0E4
:100C600001C0880F3A95EAF7822B80936800EDE681
:100C7000F0E0983050F0EBE6F0E09E3030F0ECE63B
:100C8000F0E0963110F0F0E0E0E04081292F30E014
:100C9000983008F05DC081E001C0880F9A95EAF7AE
:100CA000842B808380914302909144020E94D3025E
:100CB00080918201909183018A52924091F08091BB
:100CC00045028E7F809345028FB7F8941092810180
:100CD000109280012AE232E0309383012093820156
:100CE0008FBF61E08DE00E94270160E08DE00E94EF
:100CF000DB00C0E0D0E08AE292E00E949A0218167F
:100D000019069CF48AE292E00E94B20288349105AE
:100D100061F561E08DE00E94DB004BE050E064E2B1
:100D200071E08DE891E00E945801209721F30E9424
:100D3000C201882301F30E940000DDCF0C968C399C
:100D4000910509F048CF10923E0210923D0274CFF7
:100D50009E3040F42850310981E001C0880F2A9567
:100D6000EAF79ECF2E503109F7CF8C349105E9F682
:100D700060E08DE00E94DB004EE050E060E371E057
:100D8000D0CF86E191E090932B0280932A022091AC
:100D900036022631C0F4EDE6F0E0283030F0EBE624
:100DA000F0E02E3010F0ECE6F0E03081422F50E021
:100DB000283050F481E090E001C0880F2A95EAF7CE
:100DC00080958323808308952E3048F4485051093C
:100DD00081E090E001C0880F4A95EAF7F1CF4E50CC
:100DE0005109F6CF97FB072E16F4009407D077FD34
:100DF00009D00E94060707FC05D03EF49095819526
:100E00009F4F0895709561957F4F0895AA1BBB1B56
:100E100051E107C0AA1FBB1FA617B70710F0A61BFA
:100E2000B70B881F991F5A95A9F780959095BC011B
:100E3000CD010895EE0FFF1F0590F491E02D099468
:100E400010E0C0EBD0E004C0FE010E941A0721961A
:0A0E5000C13BD107C9F7F894FFCFAA
:100E5A0000000000F801580185014502B60194011D
:100E6A00A80100000000DD025801DA028B029A0292
:100E7A00B20271024C4544204C494741444F21007B
:100E8A004C4544204445534C494741444F210000B6
:00000001FF
